{
  "contractName": "EnergyTrading",
  "abi": [
    {
      "inputs": [],
      "stateMutability": "nonpayable",
      "type": "constructor"
    },
    {
      "anonymous": false,
      "inputs": [
        {
          "indexed": true,
          "internalType": "address",
          "name": "owner",
          "type": "address"
        },
        {
          "indexed": true,
          "internalType": "address",
          "name": "spender",
          "type": "address"
        },
        {
          "indexed": false,
          "internalType": "uint256",
          "name": "value",
          "type": "uint256"
        }
      ],
      "name": "Approval",
      "type": "event"
    },
    {
      "anonymous": false,
      "inputs": [
        {
          "indexed": true,
          "internalType": "uint256",
          "name": "listingId",
          "type": "uint256"
        },
        {
          "indexed": true,
          "internalType": "address",
          "name": "provider",
          "type": "address"
        },
        {
          "indexed": true,
          "internalType": "address",
          "name": "buyer",
          "type": "address"
        }
      ],
      "name": "EnergyDeliveryConfirmed",
      "type": "event"
    },
    {
      "anonymous": false,
      "inputs": [
        {
          "indexed": true,
          "internalType": "uint256",
          "name": "listingId",
          "type": "uint256"
        },
        {
          "indexed": true,
          "internalType": "address",
          "name": "provider",
          "type": "address"
        },
        {
          "indexed": false,
          "internalType": "uint256",
          "name": "energyAmount",
          "type": "uint256"
        },
        {
          "indexed": false,
          "internalType": "uint256",
          "name": "pricePerKWh",
          "type": "uint256"
        }
      ],
      "name": "EnergyListed",
      "type": "event"
    },
    {
      "anonymous": false,
      "inputs": [
        {
          "indexed": true,
          "internalType": "uint256",
          "name": "listingId",
          "type": "uint256"
        },
        {
          "indexed": true,
          "internalType": "address",
          "name": "buyer",
          "type": "address"
        },
        {
          "indexed": false,
          "internalType": "uint256",
          "name": "energyAmount",
          "type": "uint256"
        }
      ],
      "name": "EnergyPurchased",
      "type": "event"
    },
    {
      "anonymous": false,
      "inputs": [
        {
          "indexed": true,
          "internalType": "uint256",
          "name": "listingId",
          "type": "uint256"
        },
        {
          "indexed": false,
          "internalType": "uint256",
          "name": "newPrice",
          "type": "uint256"
        }
      ],
      "name": "PriceAdjusted",
      "type": "event"
    },
    {
      "anonymous": false,
      "inputs": [
        {
          "indexed": true,
          "internalType": "address",
          "name": "from",
          "type": "address"
        },
        {
          "indexed": true,
          "internalType": "address",
          "name": "to",
          "type": "address"
        },
        {
          "indexed": false,
          "internalType": "uint256",
          "name": "value",
          "type": "uint256"
        }
      ],
      "name": "Transfer",
      "type": "event"
    },
    {
      "inputs": [
        {
          "internalType": "address",
          "name": "owner",
          "type": "address"
        },
        {
          "internalType": "address",
          "name": "spender",
          "type": "address"
        }
      ],
      "name": "allowance",
      "outputs": [
        {
          "internalType": "uint256",
          "name": "",
          "type": "uint256"
        }
      ],
      "stateMutability": "view",
      "type": "function",
      "constant": true
    },
    {
      "inputs": [
        {
          "internalType": "address",
          "name": "spender",
          "type": "address"
        },
        {
          "internalType": "uint256",
          "name": "amount",
          "type": "uint256"
        }
      ],
      "name": "approve",
      "outputs": [
        {
          "internalType": "bool",
          "name": "",
          "type": "bool"
        }
      ],
      "stateMutability": "nonpayable",
      "type": "function"
    },
    {
      "inputs": [
        {
          "internalType": "address",
          "name": "account",
          "type": "address"
        }
      ],
      "name": "balanceOf",
      "outputs": [
        {
          "internalType": "uint256",
          "name": "",
          "type": "uint256"
        }
      ],
      "stateMutability": "view",
      "type": "function",
      "constant": true
    },
    {
      "inputs": [],
      "name": "decimals",
      "outputs": [
        {
          "internalType": "uint8",
          "name": "",
          "type": "uint8"
        }
      ],
      "stateMutability": "view",
      "type": "function",
      "constant": true
    },
    {
      "inputs": [
        {
          "internalType": "address",
          "name": "spender",
          "type": "address"
        },
        {
          "internalType": "uint256",
          "name": "subtractedValue",
          "type": "uint256"
        }
      ],
      "name": "decreaseAllowance",
      "outputs": [
        {
          "internalType": "bool",
          "name": "",
          "type": "bool"
        }
      ],
      "stateMutability": "nonpayable",
      "type": "function"
    },
    {
      "inputs": [
        {
          "internalType": "uint256",
          "name": "",
          "type": "uint256"
        }
      ],
      "name": "energyListings",
      "outputs": [
        {
          "internalType": "address",
          "name": "provider",
          "type": "address"
        },
        {
          "internalType": "uint256",
          "name": "energyAmount",
          "type": "uint256"
        },
        {
          "internalType": "uint256",
          "name": "basePricePerKWh",
          "type": "uint256"
        },
        {
          "internalType": "uint256",
          "name": "dynamicPricePerKWh",
          "type": "uint256"
        },
        {
          "internalType": "bool",
          "name": "isAvailable",
          "type": "bool"
        }
      ],
      "stateMutability": "view",
      "type": "function",
      "constant": true
    },
    {
      "inputs": [
        {
          "internalType": "address",
          "name": "spender",
          "type": "address"
        },
        {
          "internalType": "uint256",
          "name": "addedValue",
          "type": "uint256"
        }
      ],
      "name": "increaseAllowance",
      "outputs": [
        {
          "internalType": "bool",
          "name": "",
          "type": "bool"
        }
      ],
      "stateMutability": "nonpayable",
      "type": "function"
    },
    {
      "inputs": [],
      "name": "listingCounter",
      "outputs": [
        {
          "internalType": "uint256",
          "name": "",
          "type": "uint256"
        }
      ],
      "stateMutability": "view",
      "type": "function",
      "constant": true
    },
    {
      "inputs": [],
      "name": "name",
      "outputs": [
        {
          "internalType": "string",
          "name": "",
          "type": "string"
        }
      ],
      "stateMutability": "view",
      "type": "function",
      "constant": true
    },
    {
      "inputs": [],
      "name": "symbol",
      "outputs": [
        {
          "internalType": "string",
          "name": "",
          "type": "string"
        }
      ],
      "stateMutability": "view",
      "type": "function",
      "constant": true
    },
    {
      "inputs": [],
      "name": "totalDemand",
      "outputs": [
        {
          "internalType": "uint256",
          "name": "",
          "type": "uint256"
        }
      ],
      "stateMutability": "view",
      "type": "function",
      "constant": true
    },
    {
      "inputs": [],
      "name": "totalSupply",
      "outputs": [
        {
          "internalType": "uint256",
          "name": "",
          "type": "uint256"
        }
      ],
      "stateMutability": "view",
      "type": "function",
      "constant": true
    },
    {
      "inputs": [],
      "name": "totalSupplyEnergy",
      "outputs": [
        {
          "internalType": "uint256",
          "name": "",
          "type": "uint256"
        }
      ],
      "stateMutability": "view",
      "type": "function",
      "constant": true
    },
    {
      "inputs": [
        {
          "internalType": "address",
          "name": "to",
          "type": "address"
        },
        {
          "internalType": "uint256",
          "name": "amount",
          "type": "uint256"
        }
      ],
      "name": "transfer",
      "outputs": [
        {
          "internalType": "bool",
          "name": "",
          "type": "bool"
        }
      ],
      "stateMutability": "nonpayable",
      "type": "function"
    },
    {
      "inputs": [
        {
          "internalType": "address",
          "name": "from",
          "type": "address"
        },
        {
          "internalType": "address",
          "name": "to",
          "type": "address"
        },
        {
          "internalType": "uint256",
          "name": "amount",
          "type": "uint256"
        }
      ],
      "name": "transferFrom",
      "outputs": [
        {
          "internalType": "bool",
          "name": "",
          "type": "bool"
        }
      ],
      "stateMutability": "nonpayable",
      "type": "function"
    },
    {
      "inputs": [
        {
          "internalType": "address",
          "name": "to",
          "type": "address"
        },
        {
          "internalType": "uint256",
          "name": "amount",
          "type": "uint256"
        }
      ],
      "name": "mintTokens",
      "outputs": [],
      "stateMutability": "nonpayable",
      "type": "function"
    },
    {
      "inputs": [
        {
          "internalType": "uint256",
          "name": "_energyAmount",
          "type": "uint256"
        },
        {
          "internalType": "uint256",
          "name": "_basePricePerKWh",
          "type": "uint256"
        }
      ],
      "name": "listEnergy",
      "outputs": [],
      "stateMutability": "nonpayable",
      "type": "function"
    },
    {
      "inputs": [
        {
          "internalType": "uint256",
          "name": "_listingId",
          "type": "uint256"
        },
        {
          "internalType": "uint256",
          "name": "_energyAmount",
          "type": "uint256"
        }
      ],
      "name": "purchaseEnergy",
      "outputs": [],
      "stateMutability": "nonpayable",
      "type": "function"
    },
    {
      "inputs": [
        {
          "internalType": "uint256",
          "name": "_listingId",
          "type": "uint256"
        },
        {
          "internalType": "uint256",
          "name": "_newEnergyAmount",
          "type": "uint256"
        }
      ],
      "name": "updateEnergyListing",
      "outputs": [],
      "stateMutability": "nonpayable",
      "type": "function"
    },
    {
      "inputs": [
        {
          "internalType": "uint256",
          "name": "_listingId",
          "type": "uint256"
        }
      ],
      "name": "confirmEnergyDelivery",
      "outputs": [],
      "stateMutability": "nonpayable",
      "type": "function"
    },
    {
      "inputs": [
        {
          "internalType": "address",
          "name": "_user",
          "type": "address"
        }
      ],
      "name": "getBalance",
      "outputs": [
        {
          "internalType": "uint256",
          "name": "",
          "type": "uint256"
        }
      ],
      "stateMutability": "view",
      "type": "function",
      "constant": true
    },
    {
      "inputs": [
        {
          "internalType": "uint256",
          "name": "_listingId",
          "type": "uint256"
        }
      ],
      "name": "getListingDetails",
      "outputs": [
        {
          "internalType": "address",
          "name": "",
          "type": "address"
        },
        {
          "internalType": "uint256",
          "name": "",
          "type": "uint256"
        },
        {
          "internalType": "uint256",
          "name": "",
          "type": "uint256"
        },
        {
          "internalType": "uint256",
          "name": "",
          "type": "uint256"
        },
        {
          "internalType": "bool",
          "name": "",
          "type": "bool"
        }
      ],
      "stateMutability": "view",
      "type": "function",
      "constant": true
    }
  ],
  "bytecode": "0x60806040523480156200001157600080fd5b506040518060400160405280600b81526020017f456e65726779546f6b656e0000000000000000000000000000000000000000008152506040518060400160405280600381526020017f45544b0000000000000000000000000000000000000000000000000000000000815250816003908051906020019062000096929190620000b8565b508060049080519060200190620000af929190620000b8565b505050620001cc565b828054620000c69062000197565b90600052602060002090601f016020900481019282620000ea576000855562000136565b82601f106200010557805160ff191683800117855562000136565b8280016001018555821562000136579182015b828111156200013557825182559160200191906001019062000118565b5b50905062000145919062000149565b5090565b5b80821115620001645760008160009055506001016200014a565b5090565b7f4e487b7100000000000000000000000000000000000000000000000000000000600052602260045260246000fd5b60006002820490506001821680620001b057607f821691505b602082108103620001c657620001c562000168565b5b50919050565b6125ef80620001dc6000396000f3fe608060405234801561001057600080fd5b50600436106101425760003560e01c80636c2c9c7d116100b8578063c8a9fb5e1161007c578063c8a9fb5e146103a5578063dd62ed3e146103c1578063efc58756146103f1578063f0dda65c1461040d578063f8b2cb4f14610429578063fb05da2e1461045957610142565b80636c2c9c7d146102d957806370a08231146102f757806395d89b4114610327578063a457c2d714610345578063a9059cbb1461037557610142565b8063313ce5671161010a578063313ce567146101ff578063395093511461021d57806342672ec61461024d578063528151081461026957806360fdbe8c1461028757806365e111f8146102a557610142565b806303b5baae1461014757806306fdde0314610163578063095ea7b31461018157806318160ddd146101b157806323b872dd146101cf575b600080fd5b610161600480360381019061015c91906117ba565b61048d565b005b61016b6106b1565b6040516101789190611893565b60405180910390f35b61019b60048036038101906101969190611913565b610743565b6040516101a8919061196e565b60405180910390f35b6101b9610766565b6040516101c69190611998565b60405180910390f35b6101e960048036038101906101e491906119b3565b610770565b6040516101f6919061196e565b60405180910390f35b61020761079f565b6040516102149190611a22565b60405180910390f35b61023760048036038101906102329190611913565b6107a8565b604051610244919061196e565b60405180910390f35b61026760048036038101906102629190611a3d565b6107df565b005b610271610913565b60405161027e9190611998565b60405180910390f35b61028f610919565b60405161029c9190611998565b60405180910390f35b6102bf60048036038101906102ba9190611a3d565b61091f565b6040516102d0959493929190611a79565b60405180910390f35b6102e1610982565b6040516102ee9190611998565b60405180910390f35b610311600480360381019061030c9190611acc565b610988565b60405161031e9190611998565b60405180910390f35b61032f6109d0565b60405161033c9190611893565b60405180910390f35b61035f600480360381019061035a9190611913565b610a62565b60405161036c919061196e565b60405180910390f35b61038f600480360381019061038a9190611913565b610ad9565b60405161039c919061196e565b60405180910390f35b6103bf60048036038101906103ba91906117ba565b610afc565b005b6103db60048036038101906103d69190611af9565b610cf5565b6040516103e89190611998565b60405180910390f35b61040b600480360381019061040691906117ba565b610d7c565b005b61042760048036038101906104229190611913565b610edb565b005b610443600480360381019061043e9190611acc565b610ee9565b6040516104509190611998565b60405180910390f35b610473600480360381019061046e9190611a3d565b610efb565b604051610484959493929190611a79565b60405180910390f35b60006007600084815260200190815260200160002090508060040160009054906101000a900460ff166104f5576040517f08c379a00000000000000000000000000000000000000000000000000000000081526004016104ec90611b85565b60405180910390fd5b806001015482111561053c576040517f08c379a000000000000000000000000000000000000000000000000000000000815260040161053390611bf1565b60405180910390fd5b6000670de0b6b3a76400008260030154846105579190611c40565b6105619190611cc9565b90508061056d33610988565b10156105ae576040517f08c379a00000000000000000000000000000000000000000000000000000000081526004016105a590611d46565b60405180910390fd5b6105dd338360000160009054906101000a900473ffffffffffffffffffffffffffffffffffffffff1683610fe0565b828260010160008282546105f19190611d66565b9250508190555060008260010154036106225760008260040160006101000a81548160ff0219169083151502179055505b82600660008282546106349190611d9a565b92505081905550826005600082825461064d9190611d66565b9250508190555061065c61125f565b3373ffffffffffffffffffffffffffffffffffffffff16847fca257078ef5cd23527d1af349a61e189d010869d5b36ebcbb53dc41d49ff988d856040516106a39190611998565b60405180910390a350505050565b6060600380546106c090611e1f565b80601f01602080910402602001604051908101604052809291908181526020018280546106ec90611e1f565b80156107395780601f1061070e57610100808354040283529160200191610739565b820191906000526020600020905b81548152906001019060200180831161071c57829003601f168201915b5050505050905090565b60008061074e6112b8565b905061075b8185856112c0565b600191505092915050565b6000600254905090565b60008061077b6112b8565b9050610788858285611489565b610793858585610fe0565b60019150509392505050565b60006012905090565b6000806107b36112b8565b90506107d48185856107c58589610cf5565b6107cf9190611d9a565b6112c0565b600191505092915050565b60006007600083815260200190815260200160002090503373ffffffffffffffffffffffffffffffffffffffff168160000160009054906101000a900473ffffffffffffffffffffffffffffffffffffffff1673ffffffffffffffffffffffffffffffffffffffff1614610888576040517f08c379a000000000000000000000000000000000000000000000000000000000815260040161087f90611ec2565b60405180910390fd5b61089061125f565b3373ffffffffffffffffffffffffffffffffffffffff168160000160009054906101000a900473ffffffffffffffffffffffffffffffffffffffff1673ffffffffffffffffffffffffffffffffffffffff16837f5864b478f160a1f58e506b38b857ae9df11961142ff21deb53436a198fe9cbc260405160405180910390a45050565b60065481565b60055481565b60076020528060005260406000206000915090508060000160009054906101000a900473ffffffffffffffffffffffffffffffffffffffff16908060010154908060020154908060030154908060040160009054906101000a900460ff16905085565b60085481565b60008060008373ffffffffffffffffffffffffffffffffffffffff1673ffffffffffffffffffffffffffffffffffffffff168152602001908152602001600020549050919050565b6060600480546109df90611e1f565b80601f0160208091040260200160405190810160405280929190818152602001828054610a0b90611e1f565b8015610a585780601f10610a2d57610100808354040283529160200191610a58565b820191906000526020600020905b815481529060010190602001808311610a3b57829003601f168201915b5050505050905090565b600080610a6d6112b8565b90506000610a7b8286610cf5565b905083811015610ac0576040517f08c379a0000000000000000000000000000000000000000000000000000000008152600401610ab790611f54565b60405180910390fd5b610acd82868684036112c0565b60019250505092915050565b600080610ae46112b8565b9050610af1818585610fe0565b600191505092915050565b60008211610b3f576040517f08c379a0000000000000000000000000000000000000000000000000000000008152600401610b3690611fe6565b60405180910390fd5b60008111610b82576040517f08c379a0000000000000000000000000000000000000000000000000000000008152600401610b7990612078565b60405180910390fd5b60086000815480929190610b9590612098565b919050555060008190506040518060a001604052803373ffffffffffffffffffffffffffffffffffffffff1681526020018481526020018381526020018281526020016001151581525060076000600854815260200190815260200160002060008201518160000160006101000a81548173ffffffffffffffffffffffffffffffffffffffff021916908373ffffffffffffffffffffffffffffffffffffffff16021790555060208201518160010155604082015181600201556060820151816003015560808201518160040160006101000a81548160ff0219169083151502179055509050508260056000828254610c8e9190611d9a565b92505081905550610c9d61125f565b3373ffffffffffffffffffffffffffffffffffffffff166008547fdce237255d5bd98b57c816861c3b76c8e47e10382084f482135e29cb83a534be8584604051610ce89291906120e0565b60405180910390a3505050565b6000600160008473ffffffffffffffffffffffffffffffffffffffff1673ffffffffffffffffffffffffffffffffffffffff16815260200190815260200160002060008373ffffffffffffffffffffffffffffffffffffffff1673ffffffffffffffffffffffffffffffffffffffff16815260200190815260200160002054905092915050565b60006007600084815260200190815260200160002090503373ffffffffffffffffffffffffffffffffffffffff168160000160009054906101000a900473ffffffffffffffffffffffffffffffffffffffff1673ffffffffffffffffffffffffffffffffffffffff1614610e25576040517f08c379a0000000000000000000000000000000000000000000000000000000008152600401610e1c9061217b565b60405180910390fd5b6000821015610e69576040517f08c379a0000000000000000000000000000000000000000000000000000000008152600401610e60906121e7565b60405180910390fd5b806001015460056000828254610e7f9190611d66565b925050819055508181600101819055508160056000828254610ea19190611d9a565b9250508190555060008203610ece5760008160040160006101000a81548160ff0219169083151502179055505b610ed661125f565b505050565b610ee58282611515565b5050565b6000610ef482610988565b9050919050565b600080600080600080600760008881526020019081526020016000206040518060a00160405290816000820160009054906101000a900473ffffffffffffffffffffffffffffffffffffffff1673ffffffffffffffffffffffffffffffffffffffff1673ffffffffffffffffffffffffffffffffffffffff1681526020016001820154815260200160028201548152602001600382015481526020016004820160009054906101000a900460ff161515151581525050905080600001518160200151826040015183606001518460800151955095509550955095505091939590929450565b600073ffffffffffffffffffffffffffffffffffffffff168373ffffffffffffffffffffffffffffffffffffffff160361104f576040517f08c379a000000000000000000000000000000000000000000000000000000000815260040161104690612279565b60405180910390fd5b600073ffffffffffffffffffffffffffffffffffffffff168273ffffffffffffffffffffffffffffffffffffffff16036110be576040517f08c379a00000000000000000000000000000000000000000000000000000000081526004016110b59061230b565b60405180910390fd5b6110c9838383611674565b60008060008573ffffffffffffffffffffffffffffffffffffffff1673ffffffffffffffffffffffffffffffffffffffff1681526020019081526020016000205490508181101561114f576040517f08c379a00000000000000000000000000000000000000000000000000000000081526004016111469061239d565b60405180910390fd5b8181036000808673ffffffffffffffffffffffffffffffffffffffff1673ffffffffffffffffffffffffffffffffffffffff16815260200190815260200160002081905550816000808573ffffffffffffffffffffffffffffffffffffffff1673ffffffffffffffffffffffffffffffffffffffff16815260200190815260200160002060008282546111e29190611d9a565b925050819055508273ffffffffffffffffffffffffffffffffffffffff168473ffffffffffffffffffffffffffffffffffffffff167fddf252ad1be2c89b69c2b068fc378daa952ba7f163c4a11628f55a4df523b3ef846040516112469190611998565b60405180910390a3611259848484611679565b50505050565b6000600190505b60085481116112b5576007600082815260200190815260200160002060040160009054906101000a900460ff16156112a2576112a18161167e565b5b80806112ad90612098565b915050611266565b50565b600033905090565b600073ffffffffffffffffffffffffffffffffffffffff168373ffffffffffffffffffffffffffffffffffffffff160361132f576040517f08c379a00000000000000000000000000000000000000000000000000000000081526004016113269061242f565b60405180910390fd5b600073ffffffffffffffffffffffffffffffffffffffff168273ffffffffffffffffffffffffffffffffffffffff160361139e576040517f08c379a0000000000000000000000000000000000000000000000000000000008152600401611395906124c1565b60405180910390fd5b80600160008573ffffffffffffffffffffffffffffffffffffffff1673ffffffffffffffffffffffffffffffffffffffff16815260200190815260200160002060008473ffffffffffffffffffffffffffffffffffffffff1673ffffffffffffffffffffffffffffffffffffffff168152602001908152602001600020819055508173ffffffffffffffffffffffffffffffffffffffff168373ffffffffffffffffffffffffffffffffffffffff167f8c5be1e5ebec7d5bd14f71427d1e84f3dd0314c0f7b2291e5b200ac8c7c3b9258360405161147c9190611998565b60405180910390a3505050565b60006114958484610cf5565b90507fffffffffffffffffffffffffffffffffffffffffffffffffffffffffffffffff811461150f5781811015611501576040517f08c379a00000000000000000000000000000000000000000000000000000000081526004016114f89061252d565b60405180910390fd5b61150e84848484036112c0565b5b50505050565b600073ffffffffffffffffffffffffffffffffffffffff168273ffffffffffffffffffffffffffffffffffffffff1603611584576040517f08c379a000000000000000000000000000000000000000000000000000000000815260040161157b90612599565b60405180910390fd5b61159060008383611674565b80600260008282546115a29190611d9a565b92505081905550806000808473ffffffffffffffffffffffffffffffffffffffff1673ffffffffffffffffffffffffffffffffffffffff16815260200190815260200160002060008282546115f79190611d9a565b925050819055508173ffffffffffffffffffffffffffffffffffffffff16600073ffffffffffffffffffffffffffffffffffffffff167fddf252ad1be2c89b69c2b068fc378daa952ba7f163c4a11628f55a4df523b3ef8360405161165c9190611998565b60405180910390a361167060008383611679565b5050565b505050565b505050565b600060076000838152602001908152602001600020905060008160020154905060065460055411156116f657600a6005546006546005546116bf9190611d66565b836116ca9190611c40565b6116d49190611cc9565b6116de9190611cc9565b816116e99190611d66565b826003018190555061173e565b600a60065460055460065461170b9190611d66565b836117169190611c40565b6117209190611cc9565b61172a9190611cc9565b816117359190611d9a565b82600301819055505b827f433cdc262329cacb342553b87c0c326f44770ce13559357cfd1fdd7384abf20f83600301546040516117729190611998565b60405180910390a2505050565b600080fd5b6000819050919050565b61179781611784565b81146117a257600080fd5b50565b6000813590506117b48161178e565b92915050565b600080604083850312156117d1576117d061177f565b5b60006117df858286016117a5565b92505060206117f0858286016117a5565b9150509250929050565b600081519050919050565b600082825260208201905092915050565b60005b83811015611834578082015181840152602081019050611819565b83811115611843576000848401525b50505050565b6000601f19601f8301169050919050565b6000611865826117fa565b61186f8185611805565b935061187f818560208601611816565b61188881611849565b840191505092915050565b600060208201905081810360008301526118ad818461185a565b905092915050565b600073ffffffffffffffffffffffffffffffffffffffff82169050919050565b60006118e0826118b5565b9050919050565b6118f0816118d5565b81146118fb57600080fd5b50565b60008135905061190d816118e7565b92915050565b6000806040838503121561192a5761192961177f565b5b6000611938858286016118fe565b9250506020611949858286016117a5565b9150509250929050565b60008115159050919050565b61196881611953565b82525050565b6000602082019050611983600083018461195f565b92915050565b61199281611784565b82525050565b60006020820190506119ad6000830184611989565b92915050565b6000806000606084860312156119cc576119cb61177f565b5b60006119da868287016118fe565b93505060206119eb868287016118fe565b92505060406119fc868287016117a5565b9150509250925092565b600060ff82169050919050565b611a1c81611a06565b82525050565b6000602082019050611a376000830184611a13565b92915050565b600060208284031215611a5357611a5261177f565b5b6000611a61848285016117a5565b91505092915050565b611a73816118d5565b82525050565b600060a082019050611a8e6000830188611a6a565b611a9b6020830187611989565b611aa86040830186611989565b611ab56060830185611989565b611ac2608083018461195f565b9695505050505050565b600060208284031215611ae257611ae161177f565b5b6000611af0848285016118fe565b91505092915050565b60008060408385031215611b1057611b0f61177f565b5b6000611b1e858286016118fe565b9250506020611b2f858286016118fe565b9150509250929050565b7f456e65726779206973206e6f206c6f6e67657220617661696c61626c65000000600082015250565b6000611b6f601d83611805565b9150611b7a82611b39565b602082019050919050565b60006020820190508181036000830152611b9e81611b62565b9050919050565b7f4e6f7420656e6f75676820656e6572677920617661696c61626c650000000000600082015250565b6000611bdb601b83611805565b9150611be682611ba5565b602082019050919050565b60006020820190508181036000830152611c0a81611bce565b9050919050565b7f4e487b7100000000000000000000000000000000000000000000000000000000600052601160045260246000fd5b6000611c4b82611784565b9150611c5683611784565b9250817fffffffffffffffffffffffffffffffffffffffffffffffffffffffffffffffff0483118215151615611c8f57611c8e611c11565b5b828202905092915050565b7f4e487b7100000000000000000000000000000000000000000000000000000000600052601260045260246000fd5b6000611cd482611784565b9150611cdf83611784565b925082611cef57611cee611c9a565b5b828204905092915050565b7f496e73756666696369656e7420456e6572677920546f6b656e73000000000000600082015250565b6000611d30601a83611805565b9150611d3b82611cfa565b602082019050919050565b60006020820190508181036000830152611d5f81611d23565b9050919050565b6000611d7182611784565b9150611d7c83611784565b925082821015611d8f57611d8e611c11565b5b828203905092915050565b6000611da582611784565b9150611db083611784565b9250827fffffffffffffffffffffffffffffffffffffffffffffffffffffffffffffffff03821115611de557611de4611c11565b5b828201905092915050565b7f4e487b7100000000000000000000000000000000000000000000000000000000600052602260045260246000fd5b60006002820490506001821680611e3757607f821691505b602082108103611e4a57611e49611df0565b5b50919050565b7f4f6e6c792070726f76696465722063616e20636f6e6669726d2064656c69766560008201527f7279000000000000000000000000000000000000000000000000000000000000602082015250565b6000611eac602283611805565b9150611eb782611e50565b604082019050919050565b60006020820190508181036000830152611edb81611e9f565b9050919050565b7f45524332303a2064656372656173656420616c6c6f77616e63652062656c6f7760008201527f207a65726f000000000000000000000000000000000000000000000000000000602082015250565b6000611f3e602583611805565b9150611f4982611ee2565b604082019050919050565b60006020820190508181036000830152611f6d81611f31565b9050919050565b7f456e6572677920616d6f756e74206d757374206265206772656174657220746860008201527f616e203000000000000000000000000000000000000000000000000000000000602082015250565b6000611fd0602483611805565b9150611fdb82611f74565b604082019050919050565b60006020820190508181036000830152611fff81611fc3565b9050919050565b7f507269636520706572206b5768206d757374206265206772656174657220746860008201527f616e203000000000000000000000000000000000000000000000000000000000602082015250565b6000612062602483611805565b915061206d82612006565b604082019050919050565b6000602082019050818103600083015261209181612055565b9050919050565b60006120a382611784565b91507fffffffffffffffffffffffffffffffffffffffffffffffffffffffffffffffff82036120d5576120d4611c11565b5b600182019050919050565b60006040820190506120f56000830185611989565b6121026020830184611989565b9392505050565b7f4f6e6c792070726f76696465722063616e207570646174652074686973206c6960008201527f7374696e67000000000000000000000000000000000000000000000000000000602082015250565b6000612165602583611805565b915061217082612109565b604082019050919050565b6000602082019050818103600083015261219481612158565b9050919050565b7f456e6572677920616d6f756e742063616e6e6f74206265206e65676174697665600082015250565b60006121d1602083611805565b91506121dc8261219b565b602082019050919050565b60006020820190508181036000830152612200816121c4565b9050919050565b7f45524332303a207472616e736665722066726f6d20746865207a65726f20616460008201527f6472657373000000000000000000000000000000000000000000000000000000602082015250565b6000612263602583611805565b915061226e82612207565b604082019050919050565b6000602082019050818103600083015261229281612256565b9050919050565b7f45524332303a207472616e7366657220746f20746865207a65726f206164647260008201527f6573730000000000000000000000000000000000000000000000000000000000602082015250565b60006122f5602383611805565b915061230082612299565b604082019050919050565b60006020820190508181036000830152612324816122e8565b9050919050565b7f45524332303a207472616e7366657220616d6f756e742065786365656473206260008201527f616c616e63650000000000000000000000000000000000000000000000000000602082015250565b6000612387602683611805565b91506123928261232b565b604082019050919050565b600060208201905081810360008301526123b68161237a565b9050919050565b7f45524332303a20617070726f76652066726f6d20746865207a65726f2061646460008201527f7265737300000000000000000000000000000000000000000000000000000000602082015250565b6000612419602483611805565b9150612424826123bd565b604082019050919050565b600060208201905081810360008301526124488161240c565b9050919050565b7f45524332303a20617070726f766520746f20746865207a65726f20616464726560008201527f7373000000000000000000000000000000000000000000000000000000000000602082015250565b60006124ab602283611805565b91506124b68261244f565b604082019050919050565b600060208201905081810360008301526124da8161249e565b9050919050565b7f45524332303a20696e73756666696369656e7420616c6c6f77616e6365000000600082015250565b6000612517601d83611805565b9150612522826124e1565b602082019050919050565b600060208201905081810360008301526125468161250a565b9050919050565b7f45524332303a206d696e7420746f20746865207a65726f206164647265737300600082015250565b6000612583601f83611805565b915061258e8261254d565b602082019050919050565b600060208201905081810360008301526125b281612576565b905091905056fea26469706673582212208c721cc7c00e1ee7173e6f95cd8879383e43d342ece8c11e4c75b352b495b84864736f6c634300080d0033",
  "immutableReferences": {},
  "source": "// SPDX-License-Identifier: MIT\r\npragma solidity ^0.8.0;\r\n\r\nimport \"@openzeppelin/contracts/token/ERC20/ERC20.sol\";\r\n\r\ncontract EnergyTrading is ERC20 {\r\n\r\n    // Struct to store energy trade details\r\n    struct EnergyListing {\r\n        address provider;        // Address of energy provider\r\n        uint256 energyAmount;    // Energy amount in kWh\r\n        uint256 basePricePerKWh; // Base price per kWh in Energy Tokens\r\n        uint256 dynamicPricePerKWh; // Dynamic price per kWh based on supply-demand\r\n        bool isAvailable;        // Is the listing available for trade\r\n    }\r\n\r\n    // Market dynamics tracking\r\n    uint256 public totalSupplyEnergy;  // Total available energy in the market\r\n    uint256 public totalDemand;        // Total demand for energy\r\n\r\n    // Mapping for energy listings\r\n    mapping(uint256 => EnergyListing) public energyListings;\r\n    uint256 public listingCounter;\r\n\r\n    // Events for logging\r\n    event EnergyListed(uint256 indexed listingId, address indexed provider, uint256 energyAmount, uint256 pricePerKWh);\r\n    event EnergyPurchased(uint256 indexed listingId, address indexed buyer, uint256 energyAmount);\r\n    event EnergyDeliveryConfirmed(uint256 indexed listingId, address indexed provider, address indexed buyer);\r\n    event PriceAdjusted(uint256 indexed listingId, uint256 newPrice);\r\n\r\n    // Constructor to initialize the token\r\n    constructor() ERC20(\"EnergyToken\", \"ETK\") {}\r\n\r\n    // Function to mint new tokens (with access control if needed)\r\n    function mintTokens(address to, uint256 amount) public {\r\n        _mint(to, amount);\r\n    }\r\n    // Function to list energy for sale using Energy Tokens with dynamic pricing\r\n    function listEnergy(uint256 _energyAmount, uint256 _basePricePerKWh) public {\r\n        require(_energyAmount > 0, \"Energy amount must be greater than 0\");\r\n        require(_basePricePerKWh > 0, \"Price per kWh must be greater than 0\");\r\n\r\n        listingCounter++;\r\n        uint256 initialDynamicPrice = _basePricePerKWh; // Start with base price\r\n\r\n        energyListings[listingCounter] = EnergyListing({\r\n            provider: msg.sender,\r\n            energyAmount: _energyAmount,\r\n            basePricePerKWh: _basePricePerKWh,\r\n            dynamicPricePerKWh: initialDynamicPrice,\r\n            isAvailable: true\r\n        });\r\n\r\n        totalSupplyEnergy += _energyAmount; // Increase the total energy supply\r\n        adjustDynamicPriceForAllListings();\r\n        emit EnergyListed(listingCounter, msg.sender, _energyAmount, initialDynamicPrice);\r\n    }\r\n\r\n    // Function to adjust dynamic pricing based on supply and demand for all listings\r\n    function adjustDynamicPriceForAllListings() internal {\r\n        for (uint256 i = 1; i <= listingCounter; i++) {\r\n            if (energyListings[i].isAvailable) {\r\n                adjustDynamicPrice(i);\r\n            }\r\n        }\r\n    }\r\n\r\n    // Function to adjust dynamic pricing based on supply and demand\r\n    function adjustDynamicPrice(uint256 _listingId) internal {\r\n        EnergyListing storage listing = energyListings[_listingId];\r\n        uint256 basePrice = listing.basePricePerKWh;\r\n\r\n        // Calculate dynamic price based on current supply and demand\r\n        if (totalSupplyEnergy > totalDemand) {\r\n            // More supply than demand, price decreases\r\n            listing.dynamicPricePerKWh = basePrice - (basePrice * (totalSupplyEnergy - totalDemand) / totalSupplyEnergy) / 10;\r\n        } else {\r\n            // More demand than supply, price increases\r\n            listing.dynamicPricePerKWh = basePrice + (basePrice * (totalDemand - totalSupplyEnergy) / totalDemand) / 10;\r\n        }\r\n\r\n        emit PriceAdjusted(_listingId, listing.dynamicPricePerKWh);\r\n    }\r\n\r\n    // Function to purchase energy using Energy Tokens with dynamic pricing applied\r\n    function purchaseEnergy(uint256 _listingId, uint256 _energyAmount) public {\r\n        EnergyListing storage listing = energyListings[_listingId];\r\n        require(listing.isAvailable, \"Energy is no longer available\");\r\n        require(_energyAmount <= listing.energyAmount, \"Not enough energy available\");\r\n\r\n        // Calculate the total cost in Energy Tokens\r\n        uint256 totalCost = (_energyAmount * listing.dynamicPricePerKWh) / 1 ether;\r\n        require(balanceOf(msg.sender) >= totalCost, \"Insufficient Energy Tokens\");\r\n\r\n        // Transfer Energy Tokens from buyer to provider\r\n        _transfer(msg.sender, listing.provider, totalCost);\r\n\r\n        // Reduce available energy in the listing\r\n        listing.energyAmount -= _energyAmount;\r\n        if (listing.energyAmount == 0) {\r\n            listing.isAvailable = false; // Mark listing as sold out\r\n        }\r\n\r\n        totalDemand += _energyAmount;  // Increase demand count\r\n        totalSupplyEnergy -= _energyAmount;  // Decrease total supply\r\n        adjustDynamicPriceForAllListings();\r\n\r\n        emit EnergyPurchased(_listingId, msg.sender, _energyAmount);\r\n    }\r\n\r\n    // Real-time energy updates for provider\r\n    function updateEnergyListing(uint256 _listingId, uint256 _newEnergyAmount) public {\r\n        EnergyListing storage listing = energyListings[_listingId];\r\n        require(listing.provider == msg.sender, \"Only provider can update this listing\");\r\n        require(_newEnergyAmount >= 0, \"Energy amount cannot be negative\");\r\n\r\n        totalSupplyEnergy -= listing.energyAmount; // Adjust total supply before update\r\n        listing.energyAmount = _newEnergyAmount;\r\n        totalSupplyEnergy += _newEnergyAmount; // Update total supply\r\n    \r\n        if (_newEnergyAmount == 0) {\r\n            listing.isAvailable = false; // Mark as unavailable if no energy left\r\n        }\r\n\r\n        adjustDynamicPriceForAllListings();\r\n    }\r\n\r\n    // Function to confirm energy delivery after purchase (can be extended for IoT integration)\r\n    function confirmEnergyDelivery(uint256 _listingId) public {\r\n        EnergyListing storage listing = energyListings[_listingId];\r\n        require(listing.provider == msg.sender, \"Only provider can confirm delivery\");\r\n\r\n        adjustDynamicPriceForAllListings();\r\n        emit EnergyDeliveryConfirmed(_listingId, listing.provider, msg.sender);\r\n    }\r\n\r\n    // Function to track the balance of Energy Tokens for each user\r\n    function getBalance(address _user) public view returns (uint256) {\r\n        return balanceOf(_user);\r\n    }\r\n\r\n    // Function to view listing details\r\n    function getListingDetails(uint256 _listingId) public view returns (address, uint256, uint256, uint256, bool) {\r\n        EnergyListing memory listing = energyListings[_listingId];\r\n        return (listing.provider, listing.energyAmount, listing.basePricePerKWh, listing.dynamicPricePerKWh, listing.isAvailable);\r\n    }\r\n}\r\n",
  "sourcePath": "C:\\Users\\Doszh\\Desktop\\blockchain\\contracts\\EnergyTrading.sol",
  "compiler": {
    "name": "solc",
    "version": "0.8.13+commit.abaa5c0e.Emscripten.clang"
  },
  "schemaVersion": "3.4.16",
  "updatedAt": "2024-11-08T05:47:57.593Z",
  "networkType": "ethereum",
  "devdoc": {
    "kind": "dev",
    "methods": {
      "allowance(address,address)": {
        "details": "See {IERC20-allowance}."
      },
      "approve(address,uint256)": {
        "details": "See {IERC20-approve}. NOTE: If `amount` is the maximum `uint256`, the allowance is not updated on `transferFrom`. This is semantically equivalent to an infinite approval. Requirements: - `spender` cannot be the zero address."
      },
      "balanceOf(address)": {
        "details": "See {IERC20-balanceOf}."
      },
      "decimals()": {
        "details": "Returns the number of decimals used to get its user representation. For example, if `decimals` equals `2`, a balance of `505` tokens should be displayed to a user as `5.05` (`505 / 10 ** 2`). Tokens usually opt for a value of 18, imitating the relationship between Ether and Wei. This is the value {ERC20} uses, unless this function is overridden; NOTE: This information is only used for _display_ purposes: it in no way affects any of the arithmetic of the contract, including {IERC20-balanceOf} and {IERC20-transfer}."
      },
      "decreaseAllowance(address,uint256)": {
        "details": "Atomically decreases the allowance granted to `spender` by the caller. This is an alternative to {approve} that can be used as a mitigation for problems described in {IERC20-approve}. Emits an {Approval} event indicating the updated allowance. Requirements: - `spender` cannot be the zero address. - `spender` must have allowance for the caller of at least `subtractedValue`."
      },
      "increaseAllowance(address,uint256)": {
        "details": "Atomically increases the allowance granted to `spender` by the caller. This is an alternative to {approve} that can be used as a mitigation for problems described in {IERC20-approve}. Emits an {Approval} event indicating the updated allowance. Requirements: - `spender` cannot be the zero address."
      },
      "name()": {
        "details": "Returns the name of the token."
      },
      "symbol()": {
        "details": "Returns the symbol of the token, usually a shorter version of the name."
      },
      "totalSupply()": {
        "details": "See {IERC20-totalSupply}."
      },
      "transfer(address,uint256)": {
        "details": "See {IERC20-transfer}. Requirements: - `to` cannot be the zero address. - the caller must have a balance of at least `amount`."
      },
      "transferFrom(address,address,uint256)": {
        "details": "See {IERC20-transferFrom}. Emits an {Approval} event indicating the updated allowance. This is not required by the EIP. See the note at the beginning of {ERC20}. NOTE: Does not update the allowance if the current allowance is the maximum `uint256`. Requirements: - `from` and `to` cannot be the zero address. - `from` must have a balance of at least `amount`. - the caller must have allowance for ``from``'s tokens of at least `amount`."
      }
    },
    "version": 1
  },
  "userdoc": {
    "kind": "user",
    "methods": {},
    "version": 1
  }
}